:020000040800F2
:10000000C0460020913E00081505000817050008AD
:100010001B0500081F05000823050008000000005C
:10002000000000000000000000000000270500089C
:1000300029050008000000002B0500082D05000818
:10004000890A0008AB3E0008AB3E0008AB3E000842
:10005000AB3E0008AB3E000855200008692C0008A4
:10006000AB3E0008AB3E0008AB3E0008AB3E0008CC
:10007000AB3E0008AB3E0008AB3E0008AB3E0008BC
:10008000AB3E0008AB3E0008AB3E0008AB3E0008AC
:10009000AB3E0008AB3E0008AB3E0008AB3E00089C
:1000A000AB3E0008AB3E0008AB3E0008AB3E00088C
:1000B000AB3E00089F070008AB3E0008AB3E0008BF
:1000C000AB3E0008AB3E0008AB3E0008AB3E00086C
:1000D000AB3E0008C5070008AB3E0008AB3E000879
:1000E000AB3E0008AB3E0008AB3E000800F002F853
:1000F00000F061F80AA090E8000C82448344AAF161
:100100000107DA4501D100F056F8AFF2090EBAE85E
:100110000F0013F0010F18BFFB1A43F0010318473B
:1001200008D3000028D300000A444FF0000C10F858
:10013000013B13F0070408BF10F8014B1D1108BF65
:1001400010F8015B641E05D010F8016B641E01F805
:10015000016BF9D113F0080F1EBF10F8014BAD1C55
:100160000C1B09D16D1E58BF01F801CBFAD505E073
:1001700014F8016B01F8016B6D1EF9D59142D6D3CD
:10018000704700000023002400250026103A28BFF5
:1001900078C1FBD8520728BF30C148BF0B607047F9
:1001A00078290BF0C181002070471FB50CF071F861
:1001B0001FBD10B510BD0BF0F7FA1146FFF7F5FFA4
:1001C00000F0E7F80BF015FB03B4FFF7F2FF03BCF8
:1001D00003F0FEFDD2B005469E4847904FF4807074
:1001E00048904FF4967003F0B3FD4FF6074000F0CF
:1001F00061FD51E0294649A807F078FE0646C6BBD6
:1002000000BF41A949A807F0AAFE064616B99DF805
:100210000D0100B93FE09DF80D012E2800D1F0E757
:100220004798007808B1479801E00DF20D10074695
:100230009DF80C0110F0100F2CD1294601A80BF0ED
:10024000A1F985A101A80BF0C1F94FF6FF7000F0EC
:1002500031FD394601A80BF0B9F980464FF4A0737F
:100260000093F023002211460BF078F804460CB9F5
:10027000C7E711E04FF478407849088001230093E4
:1002800010233A460021084609F08BF94FF47A70A2
:1002900003F05EFDB5E700BFACE7ADF5127D70A2DF
:1002A00007CA8FAB07C300F0A7F9482003F03CFD55
:1002B00003F088FD4FF4165003F097FD00F0FEFAAE
:1002C00000F02EFB00F016FD02F074F902A90020E8
:1002D00007F026F926E04FF47840604908804FF691
:1002E000FF7000F0E7FC61A232213C2001F049FEE2
:1002F00061A246213C2001F044FE0FE063A25A2196
:100300003C2001F03EFEC82003F022FD6548006855
:1003100008B9012000E000206249086009F005F8F2
:100320000028EBD109F031F80028D4D14FF47840FF
:100330004A4908800023009310235BA232213C200D
:1003400009F02FF90023009310235CA246213C20E2
:1003500009F027F90023009310235CA25A213C20C6
:1003600009F01FF90023009310235DA26E213C20A9
:1003700009F017F90023009310235DA282213C208D
:1003800009F00FF94FF47A7003F0E2FC8FA8FFF741
:1003900021FF002400F030F9482003F0C5FC03F0F1
:1003A00011FD4FF4165003F020FD00F087FA00F025
:1003B000B1F942F2107000F0D3F94AE04F480078EA
:1003C00008B34F480078012801D100F0DDF94C480E
:1003D0000078022803D141F2883000F0C1F9484882
:1003E0000078032803D142F2107000F0B9F94448B4
:1003F0000078042803D144F6206000F0B1F9002011
:100400003E49087025E0601C84B241F2883094FBBC
:10041000F0F100FB114010B93AA00BF043F8C820EE
:1004200094FBF0F100FB114010B938A00BF03AF842
:100430001E2094FBF0F100FB114038B91948006808
:1004400008B9012000E00020164908600A2003F0E6
:100450007FFCB3E7140200202F0000001C000020E6
:10046000303A2F5049435455524500004D696E694A
:100470002053544D33320000466F6E742055706423
:100480006174696E672E2E2E0000000046415420D4
:10049000535953204552524F522E202020202020C5
:1004A00000000000A00121424D696E692053544DA7
:1004B0003332BFAAB7A2B0E500000000CDBCC6AC85
:1004C000CFD4CABE20B3CCD0F2000000D5FDB5E336
:1004D000D4ADD7D340414C49454E54454B00000064
:1004E00032303131C4EA31D4C232C8D50000000004
:1004F000BFAACABCCFD4CABE2E2E2E00190000201F
:10050000180000200A756172743A0A00696E7075ED
:10051000740A0000704700BFFEE700BFFEE700BF9F
:10052000FEE700BFFEE77047704770477047000066
:1005300000210020674A126842F48032654B1A603D
:1005400000BF644A126802F40030491C10B9B1F5CA
:10055000A06FF6D15F4A126812F4003F01D001206B
:1005600000E00020012842D15B4A126842F01002EC
:10057000594B1A601A46126822F003021A601A4692
:10058000126842F002021A60524A5268514B5A6095
:100590001A4652685A601A46526842F480625A609B
:1005A0001A46526822F47C125A601A46526842F483
:1005B000E8125A601A46126842F080721A6000BF50
:1005C000444A126812F0007FFAD0424A526822F080
:1005D0000302404B5A601A46526842F002025A60C7
:1005E00000BF3C4A526802F00C02082AF9D1704759
:1005F00010B5FFF79DFF10BD10B53648006840F0FC
:1006000001003449086008464068344908403149CF
:10061000486008460068324908402E49086008468C
:10062000006820F4802008600846406820F4FE003E
:1006300048604FF41F008860FFF7DAFF4FF000605A
:100640002849086010BD10B5002100200022214B70
:100650005B6803F00C0121B1042906D0082928D1D8
:1006600007E0214B214C236027E01F4B1F4C2360E8
:1006700023E0184B5B6803F47010164B5B6803F4BF
:100680008032022303EB904022B9194B4343174CAD
:1006900023600DE00F4B5B6813F4003F04D0144B54
:1006A0004343124C236003E00F4B43430F4C236042
:1006B00003E00D4B0D4C236000BF00BF054B5B6892
:1006C000C3F303130B4CE15C084B1B68CB40074C96
:1006D000236010BD00100240002002400000FFF81F
:1006E000FFFFF6FE08ED00E000127A000000002097
:1006F00000093D0004000020014601207047024629
:1007000001207047634800786349087001206349FD
:10071000087070471FB50121022004F09FF841F2D4
:100720008830ADF8080041F61F40ADF80400002005
:10073000ADF80A00ADF8060001A9594804F048FBDD
:100740001D208DF8000000208DF8010003208DF899
:10075000020001208DF80300684603F0BEFB1FBDB8
:1007600010B5044600214E4805F0ECF821464C48EF
:1007700005F0EAF801224121494804F07EFE0121FA
:10078000474804F054FE10BD10B5002241214448F2
:1007900004F073FE0021424804F049FE10BD10B57C
:1007A00001213F4805F003F958B101213C4805F00B
:1007B0000FF93C48006808B9012000E000203949E1
:1007C000086010BD10B540F22551374805F0C7FA52
:1007D000D0B3354805F043FAC4B23448007820B1AC
:1007E00001280DD002284ED12FE02046FFF784FFCC
:1007F00000B94CE02E48047001202C49087046E0F6
:10080000244908782146FFF77AFF50B92046FFF7C0
:1008100073FF10B12648047039E0002023490870A6
:1008200035E02448047000202349087002201F4945
:1008300008702048007810F03F0F04D1FFF762FFE6
:1008400000201A49087022E022E01B480178007855
:10085000401C194A10700F484454104600788028F4
:1008600002D10020114908701248007800F03F00C2
:1008700011490978884205D1FFF744FF00200B4950
:10088000087004E003E000200849087000BF00BFC2
:1008900010BD0000140300201800002019000020E3
:1008A00000040040888122420038014014000020EA
:1008B00015000020160000201700002008B50121B7
:1008C000042003F0BEFF4FF48070ADF8000010204C
:1008D0008DF8030003208DF8020069460E4803F0EE
:1008E00071FC4FF480710C4803F017FD01212020AA
:1008F00003F0A7FF0420ADF8000010208DF80300DE
:1009000003208DF802006946044803F05BFC0421D3
:10091000024803F002FD08BD000801400014014038
:1009200008B50121042003F08CFF4FF42040ADF8FE
:10093000000048208DF8030069462B4803F042FC74
:100940000120ADF8000028208DF8030069462648F4
:1009500003F038FC08BD10B50121244803F001FD67
:100960002348007858B32348006830B12248006813
:1009700018B122480068012821D10A2003F0E8F9C3
:1009800000201B4908701B48006828B901211C4839
:1009900003F0E7FC012010BD1748006828B90121C9
:1009A000174803F0DEFC0220F5E714480068012830
:1009B00013D10121124803F0D4FC0320EBE70D48CA
:1009C0000068012809D10C480068012805D10B48AE
:1009D000006810B90120064908700121084803F099
:1009E000C0FC0020D7E700000008014000043000F0
:1009F0001A000020340121423C0121420001214221
:100A00000002300070B505460C4645F2555003F023
:100A100025FD284603F025FD204603F025FD03F0C3
:100A200026FD03F029FD70BD10B503F020FD10BDBB
:100A300008B500208DF8000002208DF80100032089
:100A40008DF80200684603F048FA08BD70B5064606
:100A50000C4615460121C80203F000FF284605F0A8
:100A6000CCF9204605F0D4F9304605F0E7F905F059
:100A7000EEF9FFF7DDFF05F0D8F970BD10B50446BB
:100A8000204605F0DBF910BD10B57F2005F0D1F947
:100A900005F0DDF90448006808B9012000E00020F5
:100AA0000149086010BD0000888122424FF4807126
:100AB000FF4A516149005161FE4908604FF08001D1
:100AC000516111614FF400711161704710B5044616
:100AD0000B462046FFF7EAFF4FF48070F4490861A7
:100AE00040004861F34803604FF0800048610861AE
:100AF0004FF40070086110BD70B504462046FFF742
:100B0000D5FF4FF08830EC490860EC49C1F8040C7F
:100B10004FF6FF70E74908604FF48070E4490861C0
:100B20004FF4007048614FF0400048614FF00500FD
:100B300003F029F94020DE490861E048D0F8080CAC
:100B400085B2481508614FF03330DB49086001F188
:100B5000040108604FF6FF70D6490860284670BD52
:100B600000B52220FFF7A2FF00BD4FF48071D04AEC
:100B7000116149005161CF4908604FF08001516116
:100B800011614FF400711161704730B5014601F0F9
:100B90001F04C1F34513CA0AE50205EB43151544CA
:100BA000A8B230BD70B504460D46F02C02DAB5F59A
:100BB000A07F01DB002070BD294620460AF03AFEE6
:100BC0002220FFF773FF4FF08830BB490860BB4914
:100BD000C1F8040C4FF6FF70B64908604FF48070FE
:100BE000B34908614FF4007048614FF0400048611C
:100BF00008614FF0020003F0C6F84020AC4948619C
:100C0000022003F0C0F84020A9490861AB48D0F8A1
:100C1000080C86B2481508614FF03330A6490860C9
:100C200001F1040108604FF6FF70A449C1F80C0CF3
:100C3000A3480088A0F58A4131390BD0A04800882C
:100C4000A0F50941893905D09D480088A0F53541B6
:100C5000053901D13046AEE73046FFF796FFAAE7E7
:100C600000B540F273110720FFF730FF00BD00B55B
:100C700000210720FFF72AFF00BD70B504460D468E
:100C8000294620460AF0D6FD2220FFF70FFF4FF439
:100C9000807087490861400048618A48008885491A
:100CA00008604FF080008249486108614FF400708D
:100CB000086170BD70B504460025002108460AF0A1
:100CC000B9FDFFF74DFF00BF10E04FF48070784989
:100CD000086140004861774804604FF08000486137
:100CE00008614FF40070086105F10105B5F5963F04
:100CF000EBD370BD08B50121192003F0A2FD01213D
:100D0000714803F02EFB4FF4F860ADF8000010209E
:100D10008DF8030003208DF802006946644803F053
:100D200051FA4FF4F861624803F0F7FA4FF6FF709A
:100D3000ADF800006946604803F044FA4FF6FF71D1
:100D40005D4803F0EAFA322003F002F801210020A6
:100D5000FFF7BCFE322002F0FBFF0020FFF7CCFEC5
:100D6000574908800846018858A00AF09BFB544860
:100D70000088A0F51341253905D051480088A0F519
:100D8000134128397ED141F28F01EC20FFF79EFEFE
:100D900041F23421EF20FFF799FE4FF480710120DA
:100DA000FFF794FE4FF4E0610220FFF78FFE4FF44F
:100DB00080710120FFF78AFE4FF4E0610220FFF707
:100DC00085FE41F230010320FFF780FE0021042060
:100DD000FFF77CFE40F207210820FFF777FE002195
:100DE0000920FFF773FE00210A20FFF76FFE0121A3
:100DF0000C20FFF76BFE00210D20FFF767FE00219E
:100E00000F20FFF763FE00211020FFF75FFE072190
:100E10001120FFF75BFE00211220FFF757FE002193
:100E20001320FFF753FE322002F092FF41F290515F
:100E30001020FFF74BFE40F227211120FFF746FE5E
:100E4000322002F085FF9C211220FFF73FFE322066
:100E500002F07EFF4FF4C8511320FFF737FE232125
:100E60002920FFF733FE0E212B20FFF72FFE322023
:100E700002F06EFF00212020FFF728FE40F23F1114
:100E8000212000E08EE0FFF721FE322002F060FF1B
:100E900007213020FFF71AFE40F207713120FFF7DB
:100EA00015FE06213220FFF711FE40F2047113E017
:100EB000001001400C0C0140000C014000000140FA
:100EC000200000201C00002000023000204C434481
:100ED0002049443A25780A003520FFF7F7FD41F60E
:100EE00004713620FFF7F2FD04213720FFF7EEFDF5
:100EF00000213820FFF7EAFD40F206713920FFF7A4
:100F0000E5FD40F201713C20FFF7E0FD0F213D209F
:100F1000FFF7DCFD322002F01BFF00215020FFF71D
:100F2000D5FDEF215120FFF7D1FD00215220FFF721
:100F3000CDFD40F23F115320FFF7C8FD4FF427418C
:100F40006020FFF7C3FD01216120FFF7BFFD0021F5
:100F50006A20FFF7BBFD00218020FFF7B7FD0021CD
:100F60008120FFF7B3FD00218220FFF7AFFD0021B4
:100F70008320FFF7ABFD00218420FFF7A7FD0021B0
:100F80008520FFF7A3FD10219020FFF79FFD4FF470
:100F9000C0619220FFF79AFD40F233110720FFF75E
:100FA00095FD7FE2FF480088A0F51341203904D069
:100FB000FC480088B0F5134F7ED100210846FFF7AA
:100FC00085FD4FF480710120FFF780FD4FF4E06153
:100FD0000220FFF77BFD41F230010320FFF776FD91
:100FE00000210420FFF772FD40F202210820FFF7E4
:100FF0006DFD00210920FFF769FD00210A20FFF7A0
:1010000065FD01210C20FFF761FD00210D20FFF798
:101010005DFD00210F20FFF759FD322002F098FE00
:1010200040F201110720FFF751FD322002F090FE3F
:101030004FF486511020FFF749FD07211120FFF7DB
:1010400045FD4FF488711220FFF740FD4FF43061E9
:101050001320FFF73BFD00212920FFF737FD44F265
:1010600010012B20FFF732FD00215020FFF72EFD4D
:10107000EF215120FFF72AFD00215220FFF726FD26
:1010800040F23F115320FFF721FD4FF41C51602027
:10109000FFF71CFD01216120FFF718FD00216A20E8
:1010A000FFF714FD00218020FFF710FD00218120B3
:1010B000FFF70CFD002100E02DE08220FFF706FD88
:1010C00000218320FFF702FD00218420FFF7FEFCB2
:1010D00000218520FFF7FAFC10219020FFF7F6FC95
:1010E00000219220FFF7F2FC01219320FFF7EEFC94
:1010F0004FF488719520FFF7E9FC00219720FFF756
:10110000E5FC00219820FFF7E1FC40F27311072075
:10111000FFF7DCFCC6E1A3480088A0F5A841083928
:101120007ED14FF480710120FFF7D0FC4FF4E061D5
:101130000220FFF7CBFC41F230010320FFF7C6FC91
:1011400000210420FFF7C2FC40F207210820FFF72E
:10115000BDFC00210920FFF7B9FC00210A20FFF7A0
:10116000B5FC00210C20FFF7B1FC00210D20FFF79A
:10117000ADFC00210F20FFF7A9FC142002F0E8FDD0
:1011800041F2B0611020FFF7A1FC01211120FFF70F
:101190009DFC01211720FFF799FC4FF49C71122050
:1011A000FFF794FC4FF400611320FFF78FFC092137
:1011B0002920FFF78BFC09212A20FFF787FC00215B
:1011C000A420FFF783FC00215020FFF77FFCEF21D4
:1011D0005120FFF77BFC00215220FFF777FC40F203
:1011E0003F115320FFF772FC4FF41C516020FFF7B2
:1011F0006DFC01216120FFF769FC00216A20FFF7E7
:1012000065FC00218020FFF761FC00218120FFF7B1
:101210005DFC00218220FFF759FC0021832000E0C3
:1012200023E0FFF753FC00218420FFF74FFC00214F
:101230008520FFF74BFC13219020FFF747FC00218E
:101240009220FFF743FC03219320FFF73FFC4FF46C
:1012500088719520FFF73AFC40F273110720FFF7E1
:1012600035FC322002F074FD1CE14E480088A0F5E8
:10127000A85105397ED10720FFF728FC322002F063
:1012800067FD4FF48E711220FFF720FC0121A4208E
:10129000FFF71CFC0F210820FFF718FC08210A208B
:1012A000FFF714FC08210D20FFF710FC40F2077136
:1012B0003020FFF70BFC07213120FFF707FC40F23D
:1012C00003613220FFF702FC4FF4E0613320FFF7A7
:1012D000FDFB40F202213420FFF7F8FB022135200C
:1012E000FFF7F4FB41F60F713620FFF7EFFB40F2FA
:1012F00007713720FFF7EAFB00213820FFF7E6FBF4
:1013000000213920FFF7E2FB40F207713A20FFF796
:10131000DDFB00213B20FFF7D9FB07213C20FFF735
:10132000D5FB00213D20FFF7D1FB322002F010FD5C
:1013300001210720FFF7CAFB01211720FFF7C6FB99
:10134000322002F005FD4FF4BD511020FFF7BEFB27
:1013500040F217211120FFF7B9FB4FF48F711220D3
:10136000FFF7B4FB4FF470611320FFF7AFFB0021D0
:101370002A2000E097E0FFF7A9FB0A212920FFF7C8
:10138000A5FB4FF49F711220FFF7A0FB0021502016
:10139000FFF79CFBEF215120FFF798FB0021522023
:1013A00002E0000020000020FFF790FB40F23F1118
:1013B0005320FFF78BFB4FF41C516020FFF786FB97
:1013C00001216120FFF782FB00216A20FFF77EFBED
:1013D00000218020FFF77AFB00218120FFF776FBB8
:1013E00000218220FFF772FB00218320FFF76EFBB4
:1013F00000218420FFF76AFB00218520FFF766FBB0
:1014000013219020FFF762FB4FF440719220FFF709
:101410005DFB05219320FFF759FB00219520FFF785
:1014200055FB00219720FFF751FB00219820FFF783
:101430004DFB4FF480710120FFF748FB4FF4E06152
:101440000220FFF743FB41F230010320FFF73EFB90
:1014500000210420FFF73AFB00210C20FFF736FBA8
:1014600000210F20FFF732FB00212020FFF72EFB89
:1014700000212120FFF72AFB21210720FFF726FB6F
:10148000142002F065FC61210720FFF71FFB1420E8
:1014900002F05EFC40F273110720FFF717FB1420E7
:1014A00002F056FC47E3FF480088A0F535410539B6
:1014B0007DD10846FFF70AFB00210846FFF706FB2F
:1014C00000210846FFF702FB00210846FFF7FEFA5D
:1014D0000121A420FFF7FAFA142002F039FC4FF49E
:1014E0001C516020FFF7F2FA40F202210820FFF7BA
:1014F000EDFA4FF405713020FFF7E8FA43F2157169
:101500003120FFF7E3FA40F204613220FFF7DEFA00
:1015100040F616613320FFF7D9FA42F21121342048
:10152000FFF7D4FA4FF4A8513520FFF7CFFA48F26D
:1015300007513620FFF7CAFA41F207413720FFF77B
:10154000C5FA41F203413820FFF7C0FA20213920C3
:10155000FFF7BCFA1A219020FFF7B8FA00211020FB
:10156000FFF7B4FA07211120FFF7B0FA002112208B
:10157000FFF7ACFA00211320FFF7A8FA142002F0BD
:10158000E7FB4FF4E6611020FFF7A0FA40F23711B5
:101590001120FFF79BFA142002F0DAFB4FF4DC7104
:1015A0001220FFF793FA142002F0D2FB00E083E050
:1015B0004FF470611320FFF789FA80212A20FFF78A
:1015C00085FA48212920FFF781FA142002F0C0FB98
:1015D0004FF480710120FFF779FA4FF4E0610220A7
:1015E000FFF774FA41F230210320FFF76FFA40F25F
:1015F00002210820FFF76AFA00210A20FFF766FAA5
:1016000000210C20FFF762FA00210D20FFF75EFA9F
:1016100030210E20FFF75AFA00215020FFF756FA2A
:10162000EF215120FFF752FA00215220FFF74EFA26
:1016300040F23F115320FFF749FA4FF41C5160204C
:10164000FFF744FA01216120FFF740FA00216A20E8
:10165000FFF73CFA11219020FFF738FA4FF4C061F0
:101660009220FFF733FA40F202419320FFF72EFA5F
:1016700002219420FFF72AFA142002F069FB0121CD
:101680000720FFF723FA142002F062FB61210720F4
:10169000FFF71CFA40F273110720FFF717FA002139
:1016A0002020FFF713FA00212120FFF70FFA222153
:1016B0000020FFF70BFA3EE27A480088A0F50941C6
:1016C00089397DD101210020FFF700FA4AF6A401F3
:1016D0000320FFF7FBF900210C20FFF7F7F940F694
:1016E0000C010D20FFF7F2F94FF42C510E20FFF7FB
:1016F000EDF9B0211E20FFF7E9F942F63F31012054
:10170000FFF7E4F94FF4C0610220FFF7DFF9002191
:101710001020FFF7DBF946F270011120FFF7D6F930
:1017200000210520FFF7D2F900210620FFF7CEF9AE
:101730004EF61C711620FFF7C9F903211720FFF799
:10174000C5F940F233210720FFF7C0F900210B2033
:10175000FFF7BCF900210F20FFF7B8F90021412065
:10176000FFF7B4F900214220FFF7B0F9002148202B
:10177000FFF7ACF940F23F114920FFF7A7F900212C
:101780004A20FFF7A3F900214B20FFF79FF94FF400
:101790006F414420FFF79AF900214520FFF796F9A1
:1017A00040F23F114620FFF791F940F207713020D7
:1017B000FFF78CF94FF401713120FFF787F900E052
:1017C0003DE04FF401713220FFF780F940F2025101
:1017D0003320FFF77BF940F207513420FFF776F909
:1017E0004FF401713520FFF771F94FF40171362084
:1017F000FFF76CF940F202513720FFF767F940F22A
:1018000002313A20FFF762F940F202313B20FFF744
:101810005DF900212320FFF759F900212420FFF76B
:1018200055F94FF400412520FFF750F900214F20D2
:10183000FFF74CF900214E20FFF748F97BE11948EA
:101840000088A0F58A4131397ED101210020FFF7BF
:101850003DF90A2002F07CFA41F228611020FFF7DE
:1018600035F90E211220FFF731F940F63921132006
:10187000FFF72CF90A2002F06BFA40211120FFF744
:1018800025F950211520FFF721F90A2002F060FA0E
:101890001E211220FFF71AF90A2002F059FA4FF41C
:1018A000B15101E0200000201020FFF70FF942F6AF
:1018B00039211320FFF70AF90A2002F049FA4FF400
:1018C00080710120FFF702F94FF440710220FFF709
:1018D000FDF841F230010320FFF7F8F840F2022151
:1018E0000820FFF7F3F808210A20FFF7EFF800219E
:1018F0003020FFF7EBF840F202413120FFF7E6F825
:101900004FF483713220FFF7E1F840F203513320A6
:10191000FFF7DCF84FF482713420FFF7D7F840F27C
:1019200001313520FFF7D2F840F207713620FFF77A
:10193000CDF840F205313720FFF7C8F84FF40271B7
:101940003820FFF7C3F800E03EE040F60B71392085
:10195000FFF7BCF802214120FFF7B8F84FF41C5103
:101960006020FFF7B3F801216120FFF7AFF84FF4D3
:1019700004719020FFF7AAF84FF485719220FFF7C9
:10198000A5F804219320FFF7A1F84FF48071A0205F
:10199000FFF79CF801210720FFF798F82121072085
:1019A000FFF794F823210720FFF790F83321072051
:1019B000FFF78CF840F233110720FFF787F800217A
:1019C000A020FFF783F8B6E0FA480088A0F58A4126
:1019D00035397ED130211520FFF778F810219A2073
:1019E000FFF774F820211120FFF770F843F2284127
:1019F0001020FFF76BF802211220FFF767F841F281
:101A000038011320FFF762F8282002F0A1F9122113
:101A10000846FFF75BF8282002F09AF943F22041CC
:101A20001020FFF753F843F238011320FFF74EF868
:101A3000462002F08DF900213020FFF747F840F2F0
:101A400002413120FFF742F840F207313220FFF720
:101A50003DF84FF441713320FFF738F8042134206A
:101A6000FFF734F840F201413520FFF72FF840F23C
:101A700007713620FFF72AF840F205313720FFF7CB
:101A800025F84FF4C2613820FFF720F84FF4C26107
:101A90003920FFF71BF84FF480710120FFF716F88B
:101AA0004FF440710220FFF711F841F2300103209A
:101AB000FFF70CF840F608010820FFF707F80821A7
:101AC0000A20FFF703F84FF41C516020FEF7FEFFD9
:101AD00000E030E001216120FEF7F8FF4FF49F7134
:101AE0009020FEF7F3FF4FF480719220FEF7EEFF97
:101AF0004FF480719320FEF7E9FF4FF44051A0208E
:101B0000FEF7E4FF1021A320FEF7E0FF01210720EC
:101B1000FEF7DCFF21210720FEF7D8FF2321072055
:101B2000FEF7D4FF33210720FEF7D0FF40F2331138
:101B30000720FEF7CBFF01209F4908604FF6FF709A
:101B4000FFF7B8F808BD2DE9F05F05460E461746C9
:101B50009846DDF828A04FF0000B781B401C1FFAB8
:101B600080FB34461EE02146284609F063FEFEF75E
:101B7000F7FF4FF0000911E04FF480708F490861C2
:101B8000400048618E48C0F80CAC80204861086174
:101B90008000086109F101001FFA80F9D945EBDBEB
:101BA000601C84B24445DEDDBDE8F09F2DE9FF4FA7
:101BB00085B081468A460020049003900798A0EBE8
:101BC00009050898A0EB0A06CDF80890CDF804A006
:101BD000002D01DD012705E00DB9002702E04FF0DF
:101BE000FF376D42002E02DD4FF0010806E016B906
:101BF0004FF0000802E04FF0FF387642B54201DDB9
:101C00002C4600E034464FF0000B21E0019881B2F1
:101C1000029880B2FFF731F80498284404900398A2
:101C2000304403900498A04205DD0498001B049002
:101C30000298384402900398A04205DD0398001BE7
:101C400003900198404401900BF101001FFA80FBC2
:101C5000601C8345DADD09B0BDE8F08F2DE9F04165
:101C600004460D4616461F462B4632462946204658
:101C7000FFF79CFF3B46224629462046FFF796FF8A
:101C80003B46324639462046FFF790FF3B463246F8
:101C900029463046FFF78AFFBDE8F0812DE9F0477D
:101CA00006460F469046002445460320A0EB48090F
:101CB00048E03A1B91B2721B90B2FEF7DEFF3A1B6E
:101CC00091B2721990B2FEF7D8FF7A1991B2321B15
:101CD00090B2FEF7D2FF3A1B91B2721B90B2FEF7A0
:101CE000CCFF7A1B91B2321B90B2FEF7C6FF3A19B5
:101CF00091B2721990B2FEF7C0FF7A1B91B23219FD
:101D000090B2FEF7BAFF7A1991B2321990B2FEF78B
:101D1000B4FF3A1991B2721B90B2FEF7AEFF641C89
:101D2000B9F1000F03DAA000801D814404E0601BBC
:101D300080000A3081446D1E7A1991B2321990B236
:101D4000FEF79BFFAC42B4DDBDE8F0872DE9FF4F05
:101D500081B00746894616461D46BB46194800888D
:101D60000090E82F02DCB9F59C7F02DD05B0BDE8EC
:101D7000F08FA6F12000C6B20E98D0B9002443E03F
:101D80000C2D07D106EB46000F4901EB800010F83F
:101D900004A004E00D4800EB061010F804A04FF07A
:101DA000000825E01AF0010F12D0064900980880BB
:101DB00012E02CE020000020A80122420010014087
:101DC000000001401C0000200AC400087EC8000872
:101DD0007E4800887E49088049463846FEF74DFF18
:101DE0004FEA6A0A781C87B208F1010000F0FF0888
:101DF00005EBD571B8EB610FD4DB5F4609F101004B
:101E00001FFA80F9601CC4B2AC42B9DB2DE000249B
:101E100029E00C2D07D106EB46006E4901EB80004E
:101E200010F804A004E06C4800EB061010F804A0C1
:101E30004FF0000810E01AF0010F07D009EB040280
:101E400091B207EB080290B2FEF717FF4FEA6A0A59
:101E500008F1010000F0FF0805EBD571B8EB610F48
:101E6000E9DB601CC4B2AC42D3DB5949009808805E
:101E700000BF7BE710B50246012000E050430B0095
:101E8000A1F10104E1B2F9D110BD2DE9FF4F81B0FC
:101E9000074691461E460E9D4FF0000A00243BE087
:101EA000301B401EC1B20A20FFF7E4FFB9FBF0F07F
:101EB0000A21B0FBF1F201FB120000F0FF08BAF1B9
:101EC000000F16D1701EA04213DDB8F1000F0ED125
:101ED0000023AB4605EBD571491001FB047188B2B4
:101EE00000932B4620220299FFF730FF12E04FF0BB
:101EF000010A0023AB4605EBD571491001FB0471C3
:101F000088B200932B4608F13001CAB20299FFF75C
:101F10001DFF00BF601CC4B2B442C1DB05B0BDE808
:101F2000F08F2DE9FF4F81B007468A4690461D4647
:101F30000E9E002420E0281B401EC1B20A20FFF79D
:101F400099FFB8FBF0F00A21B0FBF1F201FB12009F
:101F500000F0FF090F9BB34606EBD671491001FB59
:101F6000047188B20093334609F13001CAB2514678
:101F7000FFF7ECFE601CC4B2AC42DCDB05B0BDE890
:101F8000F08FF8B505460E4614461BE0E82D03DD3C
:101F9000002506F1100086B2B6F59C7F06DD002014
:101FA000054606464FF6FF70FEF784FE00230093B9
:101FB0002278102331462846FFF7C8FE05F10800B5
:101FC00085B2641C20780028E0D1F8BD1E000020F6
:101FD0001C0000200AC400087EC8000810B50121BA
:101FE000042001F0BBFF0121080702F037FC0120AB
:101FF00002F06EFA02F08EFA10BD10B500214FF417
:10200000FE7002F038FCFFF7E9FF10BD70B5002547
:10201000002400202F4908601BE02F48006818B1F9
:10202000681CC5B2002409E0601CC4B2032C05DDA5
:102030000120284908604FF0000070BD1E2001F00B
:1020400087FE642D05DB0020224908604FF0010067
:10205000F3E7E2E710B5012020490860FFF7D6FF5B
:1020600008B1FFF7CAFF10BD1FB50121052002F01E
:10207000E8FB0120ADF80C0028208DF80F0003A923
:10208000174802F09FF80021084602F0AFF901203E
:10209000009000208DF8040008208DF80500012034
:1020A0008DF80600684601F09EFF06208DF80800B6
:1020B00002208DF809008DF80A0001208DF80B0030
:1020C00002A801F00AFFFFF7A1FF08B9FFF786FF9A
:1020D0001FBD0000A0012142000121421404014063
:1020E0000008014008B50121102002F0AAFB4FF4BE
:1020F000C050ADF8000010208DF8030003208DF8CB
:10210000020069468F4802F05DF801208E490860A0
:102110008E49C1F8AC0108BD10B58A48406820F46A
:102120007040884948600846406840F44050486024
:102130000120874908608549C1F8B0014FF00400CB
:1021400001F021FE0020824908604FF0040001F0F8
:102150001AFE00207D49C1F8B00110BD10B57948C4
:10216000406820F47040774948600846406840F471
:10217000405048600020744908607449C1F8AC01BF
:102180004FF0040001F0FFFD01206F4908606F4926
:10219000C1F8AC014FF0040001F0F5FD10BD10B521
:1021A00000246848406820F470406649486008464A
:1021B000406840F40040486001206549086001F033
:1021C000E2FD01206149C1F8B00101F0DCFD07E04A
:1021D000601CC4B2FA2C03DDFFF7C0FF012010BD64
:1021E0005C4800680028F3D15749086000BFF6E753
:1021F00010B50020544908605248406820F47040EF
:10220000504948600846406840F4405048604FF0EC
:1022100000004E49C1F8AC014FF0020001F0B3FDDF
:102220000120494908604FF0020001F0ACFD002098
:102230004649C1F8B00110BD10B500204249086000
:102240004048406820F470403E4948600846406875
:1022500040F4405048604FF001003C49C1F8AC01E7
:102260004FF0020001F08FFD0120374908604FF068
:10227000020001F088FD00203449C1F8B00110BD12
:1022800070B504462F48406820F470402D494860DE
:102290000846406840F44050486000202A490860E1
:1022A00005461AE0E0092A4908604FEA44604FEA0F
:1022B00010644FF0020001F066FD01202349C1F8CF
:1022C000B001022001F05FFD00201F4908604FF0BF
:1022D000020001F058FD681CC5B2082DE2DB70BD9C
:1022E00070B5054600241748406820F47040154931
:1022F00048600846406840F400404860002616E008
:102300000020114908604FF0020001F03CFD01205F
:102310000E49C1F8B0016006040E0E48006808B10D
:10232000601CC4B2012001F02EFD701CC6B2082E44
:10233000E6DB15B9FFF780FF01E0FFF759FF204604
:1023400070BD000000100140B00122420000224296
:10235000AC0122422C01224210B5FFF7C3FE10BD92
:1023600070B504460026FFF7D7FE2546E11704EBBB
:1023700011610912A02202EB4101C8B2FFF780FFF0
:10238000FFF70DFFE11704EB11610912A4EB012126
:10239000C8B2FFF775FFFFF702FFFFF7BDFEA120F0
:1023A000FFF76EFFFFF7FBFE0020FFF799FF0646E1
:1023B000FFF7D4FE304670BD70B504460E46FFF7F9
:1023C000ABFE2546E11704EB11610912A02202EBD6
:1023D0004101C8B2FFF754FFFFF7E1FEE11704EB3C
:1023E00011610912A4EB0121C8B2FFF749FFFFF701
:1023F000D6FE3046FFF744FFFFF7D1FEFFF7AEFEF3
:102400000A2001F0A5FC70BD2DE9F04105460E46FD
:102410001746002409E0E20026FA02F2D1B22A1996
:1024200090B2FFF7C9FF601CC4B2BC42F3DBBDE849
:10243000F0812DE9F04107460C460026002509E011
:1024400036023919491B491E88B2FFF789FF064435
:10245000681CC5B2A542F3DB3046BDE8F08110B57B
:10246000FF20FFF77DFF0446552C01D1002010BD51
:102470005521FF20FFF7A0FFFF20FFF771FF044663
:10248000552C01D10020F2E70120F0E770B5064697
:102490000C46154608E03046721C96B2FFF760FF06
:1024A00004F8010B681E85B2002DF4D170BD70B523
:1024B00005460C46164606E021782846FFF77CFFC5
:1024C000681C85B2641C3000A6F101018EB2F3D104
:1024D00070BD000070B50546002405E0601CC4B264
:1024E000C82C01DD002070BD02212F4802F066FBE0
:1024F0000028F3D029462C4802F00DFB002400BF31
:102500000121294802F05AFB0028F9D0601CC4B20E
:10251000C82C01DD0020E6E7234802F0FEFAC0B235
:10252000E1E708B5012141F2040002F08AF9E02058
:10253000ADF8000018208DF8030003208DF802008C
:1025400069461A4801F03EFEE021184801F0E5FE18
:102550000020174908804FF482704880002088804E
:102560000220C880012008814002488138208881EB
:102570000020C881072008820B4802F0F3F90121EE
:10258000094802F092FAFF20FFF7A4FF08BD10B53A
:102590000446074884810146034802F0E3F901211B
:1025A000014802F082FA10BD0030014000080140ED
:1025B0009403002008B51C20ADF8000010208DF811
:1025C00003006946C74801F0FDFD1C21C54801F024
:1025D000A4FEFFF7A6FF08BD10B500240020C249E5
:1025E00008604FF00500FFF775FFFF20FFF772FF4F
:1025F00004460120BD49C1F88801204610BD10B530
:1026000004460020B84908604FF00100FFF762FF60
:102610002046FFF75FFF0120B449C1F8880110BDD3
:1026200010B50020B04908604FF00600FFF752FFD8
:102630000120AE49C1F8880110BD10B50020AA499B
:1026400008604FF00400FFF745FF0120A749C1F8DB
:10265000880110BD10B500240020A34908604FF088
:102660009000FFF737FF0020FFF734FF0020FFF74F
:1026700031FF0020FFF72EFFFF20FFF72BFF44EA7A
:102680000024FF20FFF726FF044301209749C1F8EB
:102690008801204610BD2DE9F04106460C4617463C
:1026A0000020914908604FF00300FFF713FFC4F3C7
:1026B0000740FFF70FFFC4F30720FFF70BFFE0B25F
:1026C000FFF708FF002505E0FF20FFF703FF705527
:1026D000681C85B2BD42F7DB012083490860BDE874
:1026E000F08110B500BFFFF777FF00F0010001286F
:1026F000F9D010BD2DE9F04106460C461746FFF70C
:102700008FFF0020784908604FF00200FFF7E2FEDB
:10271000C4F30740FFF7DEFEC4F30720FFF7DAFE3D
:10272000E0B2FFF7D7FE002504E0705DFFF7D2FEB0
:10273000681C85B2BD42F8DB01206B490860FFF7D9
:10274000D0FFBDE8F0812DE9F04107460E46144662
:10275000F0B2C0F58075AC4200DC254612E02A4696
:1027600031463846FFF7C6FFAC4200D10BE02F449C
:102770002E44601B84B2B4F5807F02DD4FF4807577
:1027800000E02546EBE700BFBDE8F08110B5044648
:102790002403FFF745FFFFF7A4FF0020524908601C
:1027A0004FF02000FFF796FEC4F30740FFF792FEBC
:1027B000C4F30720FFF78EFEE0B2FFF78BFE012087
:1027C0004A49C1F88801FFF78CFF10BD2DE9F04799
:1027D00081460F4616464FEA1738C7F30B0ACAF56B
:1027E0008054A64200DC344644E04FEA08314FF4FE
:1027F00080523F48FFF74FFF002508E00AEB050035
:102800003B49085CFF2800D003E0681C85B2A54264
:10281000F4DB00BFA54216DA4046FFF7B7FF0025FC
:1028200007E019F8050005EB0A01314A5054681C0D
:1028300085B2A542F5DB4FEA08314FF480522C48AF
:10284000FFF781FF04E0224639464846FFF77BFF49
:10285000A64200D10FE008F101084FF0000AA144A0
:102860002744301B86B2B6F5805F02DD4FF48054FA
:1028700000E03446B9E700BFBDE8F08710B5FFF7C8
:10288000CFFEFFF72EFF0020174908604FF0C7006A
:10289000FFF720FE01201549C1F88801FFF721FF4D
:1028A00010BD10B50020104908604FF0B900FFF7C7
:1028B00011FE01200D49C1F88801032001F063FADF
:1028C00010BD10B50020084908604FF0AB00FFF7BD
:1028D00001FE01200549C1F88801032001F053FAE7
:1028E00010BD000000080140880121420000214283
:1028F000A6030020002100BF16E010F0800F03D0D7
:102900000122F84B1A6002E00022F64B1A604206E0
:10291000100E0022F44B1A604FF00102F34BC3F883
:10292000802101F10102D1B20829E6DB704770B5C0
:102930000646002500240020EB490860EB49C1F859
:10294000B4013046FFF7D6FF062001F01CFA012043
:10295000E54908604FF00000E449C1F8800100BF7C
:1029600010E06004040C0020DF4908604FF0010013
:10297000DE49C1F88001DE48006808B1601C84B2FD
:10298000681CC5B2102DECDB24110120D949086068
:10299000204670BD2DE9F04188B080460027002414
:1029A00006E04046FFF7C3FF2DF81400601C84B218
:1029B0000F2CF6DB002416E0601C85B20FE03DF81A
:1029C00014003DF81510884207DD3DF814603DF80D
:1029D00015002DF814002DF81560681C85B20F2D18
:1029E000EDDB601C84B20E2CE6DB0027052405E03D
:1029F0003DF81400384487B2601C84B20A2CF7DB1F
:102A0000052097FBF0F086B2304608B0BDE8F081B3
:102A10002DE9F04104460D46B7480078FFF7BAFFAC
:102A20000646B6480078FFF7B5FF0746642E01DB7F
:102A3000642F02DA0020BDE8F08126802F8001207B
:102A4000F9E77FB504460D4602A903A8FFF7E0FFAA
:102A5000064616B9002004B070BD694601A8FFF70C
:102A6000D7FF06460EB90020F5E7BDF80400BDF813
:102A70000C10884206DCBDF80C10BDF804003230A2
:102A800081420CDBBDF80C00BDF80410884236DC36
:102A9000BDF80410BDF80C00323081422FDABDF8C9
:102AA0000000BDF80810884206DCBDF80810BDF82B
:102AB0000000323081420CDBBDF80800BDF8001088
:102AC00088421CDCBDF80010BDF80800323081429D
:102AD00015DABDF80C10BDF80420881800EBD07191
:102AE000C1F34F012180BDF80810BDF800208818FF
:102AF00000EBD071C1F34F0129800120ABE700202A
:102B0000A9E738B17E49096841F002017D4AC2F85F
:102B1000001406E07A49096821F00201794AC2F8F6
:102B20000014704710B500240020FFF7EAFF0020D2
:102B300075490872891D881EFFF783FF04E0601C39
:102B4000C4B20A2001F004F97048006808B9FA2CF0
:102B5000F5DD0120FFF7D5FFFA2C01DB002010BDC9
:102B60000120FCE770B504460D46A4F10C0188B2C3
:102B70002B4604F10D022946FFF718F8A5F10C00C9
:102B800081B2193083B222462046FFF70FF8681C45
:102B900081B2601CFEF771F8611E88B2691C89B2AF
:102BA000FEF76BF8681E81B2601CFEF766F86A1EBD
:102BB00091B2621E90B2FEF760F8062229462046C6
:102BC000FFF76CF870BD70B504460D4629462046E7
:102BD000FEF753F82946601CFEF74FF8681C81B2D7
:102BE0002046FEF74AF8681C81B2601CFEF745F8E3
:102BF00070BD2DE9F0414449891D881EFFF721FF72
:102C000080B34149B1F9140009F01CFA06463E4967
:102C1000888809F02FFA07463B48C168384609F012
:102C200071FA0546314609F06DF8044609F0EAF9F3
:102C300035490880B1F9160009F004FA0646324910
:102C4000C88809F017FA07462F480169384609F085
:102C500059FA0546314609F055F8044609F0D2F90B
:102C600029494880BDE8F0810120274908720220E7
:102C700027490860704770B52349C868254909F09D
:102C800041FA054609F0A2F904460422214628200B
:102C9000FFF7BAFB1C4908691E4909F033FA0546DB
:102CA00009F094F90446042221462C20FFF7ACFBDE
:102CB0001548B0F9141002223020FFF7A5FB124886
:102CC000B0F9161002223220FFF79EFB0E48017E5B
:102CD0003420FFF771FB0A2421463520FFF76CFBF7
:102CE00070BD00008C01224280012242000022427D
:102CF00008012242B40122422200002023000020C9
:102D00000004014000000140A813002004012242F9
:102D10001404014020BCBE4C70B53520FFF720FBE9
:102D200004460A2C40D104212820FFF782FB0446E8
:102D3000204609F087F90546FB4909F051F8FB499F
:102D4000C86004212C20FFF774FB0446204609F0DC
:102D500079F90546F44909F043F8F449086102217C
:102D60003020FFF766FB00B2F04988820221322052
:102D7000FFF75FFB00B2ED49C8823420FFF7F0FA9D
:102D8000EA4908760846007E30B19020E84908708C
:102D9000D020E849087005E0D020E549087090206F
:102DA000E4490870012070BD0020FCE710B504461E
:102DB000E1A228210846FFF7E4F8E5A23C212820FB
:102DC000FFF7DFF8E8A250212820FFF7DAF8ECA29D
:102DD00064212820FFF7D5F8E9A264212820FFF715
:102DE000D0F8224678212820FFF7CBF810BD00B597
:102DF00091B000200B900B901F20E74908804FF600
:102E0000FF70E6490880FDF755FF4FF47840E2492E
:102E100008804FF6FF70FDF74DFF14210846FFF7BD
:102E2000A1FE0020C1490872C86076E2BF48007A5E
:102E3000012872D1FFF776FE88B1BC48808801B2C4
:102E40000CAA0B9822F82010B848C08801B20B9841
:102E500002EB800041800B98401CC0B20B900B9895
:102E6000012806D002280DD0032815D0042808D147
:102E70001CE04FF6FF70FDF71DFF1421DC20FFF76B
:102E800071FEEDE34FF6FF70FDF714FF4FF49671FE
:102E90001420FFF767FEE3E34FF6FF70FDF70AFF2C
:102EA0004FF49671DC20FFF75DFED9E3BDF93000E9
:102EB000BDF93410401A059001D4059801E0059839
:102EC00040420890BDF93210BDF93600081A05904D
:102ED00001D4059801E005984042079008984043C6
:102EE0000890079840430790DDE9071008440190D7
:102EF00008F01DFDCDE9020108F0BAFCCDE904019E
:102F000008F0E8FC80B20A90BDF93800BDF93C1029
:102F1000401A059002D4059802E0D9E30598404292
:102F20000890BDF93A10BDF93E00081A059001D489
:102F3000059801E0059840420790089840430890A2
:102F4000079840430790DDE907100844019008F016
:102F5000EEFCCDE9020108F08BFCCDE9040108F09C
:102F6000B9FC80B20990099809F084F805900A9894
:102F700009F080F80490059908F032FF0690069851
:102F800008F094FE4FF06632854BCDE9040108F05D
:102F9000E1FC0DD3069808F089FE824A824BCDE908
:102FA000040108F067FD03D30A9808B10998F0BB43
:102FB00000200B904FF6FF70FDF77CFE14210846B1
:102FC000FFF7D0FD79A0FFF7F1FE10230093BDF9C4
:102FD000300004230246282105904020FEF755FFCB
:102FE00010230093BDF932000423024628210590E6
:102FF0009020FEF74AFF10230093BDF9340004230C
:1030000002463C2105904020FEF73FFF102300932D
:10301000BDF93600042302463C2105909020FEF7BE
:1030200034FF10230093BDF93800042300E037E09B
:103030000246502105904020FEF727FF1023009301
:10304000BDF93A0004230246502105909020FEF776
:103050001CFF10230093BDF93C00042302466421A9
:1030600005904020FEF711FF10230093BDF93E00AC
:1030700004230246642105909020FEF706FF4E4986
:10308000069809F03FF8049008F0BCFF1023009365
:103090000590032302468C212820FEF7F6FE18E354
:1030A000BDF93000BDF93810401A059001D40598DB
:1030B00001E0059840420890BDF93210BDF93A0090
:1030C000081A059001D4059801E005984042079040
:1030D000089840430890079840430790DDE907109F
:1030E0000844019008F023FCCDE9020108F0C0FB80
:1030F000CDE9040108F0EEFB80B20A90BDF934007E
:10310000BDF93C10401A059001D4059801E00598DE
:1031100040420890BDF93610BDF93E00081A0590EE
:103120004CD405984CE0000020BCBE4CA8130020F5
:10313000220000202300002078313A202020202087
:10314000202079313A20202020202020000000007B
:1031500078323A2020202020202079323A20202066
:10316000202020200000000078333A20202020205A
:10317000202079333A202020202020200000000049
:1031800078343A2020202020202079343A20202032
:1031900020202020000000001C0000201E00002035
:1031A0006666EE3FCDCCCCCCCCCCF03F76657220C1
:1031B0006661632069733A000000C8420598404286
:1031C0000790089840430890079840430790DDE92E
:1031D00007100844019008F0AAFBCDE9020108F0AD
:1031E00047FBCDE9040108F075FB80B2099009980E
:1031F00008F040FF05900A9808F03CFF04900599FC
:1032000008F0EEFD0690069808F050FD4FF066328B
:10321000FF4BCDE9040108F09DFB09D3069808F0A7
:1032200045FDFC4AFC4BCDE9040108F023FC76D2B5
:1032300000200B904FF6FF70FDF73CFD142108466F
:10324000FFF790FCF5A0FFF7B1FD10230093BDF947
:10325000300004230246282105904020FEF715FE89
:1032600010230093BDF93200042302462821059063
:103270009020FEF70AFE10230093BDF934000423CA
:1032800002463C2105904020FEF7FFFD10230093ED
:10329000BDF93600042302463C2105909020FEF73C
:1032A000F4FD10230093BDF9380004230246502199
:1032B00005904020FEF7E9FD10230093BDF93A0088
:1032C00004230246502105909020FEF7DEFD1023D6
:1032D0000093BDF93C000423024664210590402080
:1032E000FEF7D3FD10230093BDF93E0004230246F0
:1032F000642105909020FEF7C8FDCB49069808F0A0
:1033000001FF049008F07EFE102300930590032334
:1033100002468C212820FEF7B8FDDAE1FFE7BDF96F
:103320003400BDF93810401A059001D4059801E029
:10333000059840420890BDF93610BDF93A00081AC8
:10334000059001D4059801E005984042079008983F
:1033500040430890079840430790DDE90710084470
:10336000019008F0E4FACDE9020108F081FACDE914
:10337000040108F0AFFA80B20A90BDF93000BDF93F
:103380003C10401A059001D4059801E00598404290
:103390000890BDF93210BDF93E00081A059001D41D
:1033A000059801E00598404207900898404308902E
:1033B000079840430790DDE907100844019008F0A2
:1033C000B6FACDE9020108F053FACDE9040108F09C
:1033D00081FA80B20990099808F04CFE05900A988D
:1033E00008F048FE0490059908F0FAFC069006984B
:1033F00008F05CFC4FF06632854BCDE9040108F023
:10340000A9FA09D3069808F051FC824A824BCDE90B
:10341000040108F02FFB76D200200B904FF6FF70CE
:10342000FDF748FC14210846FFF79CFB7FA0FFF73F
:10343000BDFC10230093BDF930000423024628216F
:1034400005904020FEF721FD10230093BDF93200C6
:1034500004230246282105909020FEF716FD102334
:103460000093BDF93400042302463C21059040201E
:10347000FEF70BFD10230093BDF93600042302462E
:103480003C2105909020FEF700FD10230093BDF92C
:10349000380004230246502105904020FEF7F5FC39
:1034A00010230093BDF93A000423024650210590F1
:1034B0009020FEF7EAFC10230093BDF93C000423A2
:1034C0000246642105904020FEF7DFFC10230093A4
:1034D000BDF93E0004230246642105909020FEF7CA
:1034E000D4FC5149069808F00DFE049008F08AFDBE
:1034F000102300930590032302468C212820FEF719
:10350000C4FCE6E0FFE7BDF93400BDF93010401A15
:10351000049008F097FD01460590474808F060FCCC
:103520004649C860BDF93400BDF930100844019027
:1035300008F088FD02904148C06801460190029859
:1035400008F0E0FD3E49039008F0E0FE4FF08041B6
:10355000049008F045FC059008F038FD00B23749AA
:103560008882BDF93A00BDF93210401A049008F083
:1035700069FD01460590334808F032FC2F49086187
:10358000BDF93A00BDF932100844019008F05AFD27
:1035900002902A48006901460190029808F0B2FDA5
:1035A0002949039008F0B2FE4FF08041049008F0E2
:1035B00017FC059008F00AFD00B22049C8820846B1
:1035C000C068039008F002FD0490002801DB049815
:1035D00001E00498404202280DDC1848006903907D
:1035E00008F0F4FC0590002801DB059801E005983F
:1035F0004042022855DD00200B904FF6FF70FDF78A
:1036000059FB14210846FFF7ADFA10A26E2128E0FD
:103610006666EE3FCDCCCCCCCCCCF03F686F722050
:103620006661632069733A000000C84264696120E2
:103630006661632069733A0000004843A8130020C4
:103640000000704300008C430000A0435450204E03
:1036500065656420726561646A7573742100000099
:1036600035E02320FEF78DFC4748007E08B9012095
:1036700000E00020444908760846007E30B19020E2
:1036800042490870D0204249087005E0D0203F49E7
:10369000087090203E4908704FF4FA7000F058FB13
:1036A00017E01F203B4908804FF6FF70FDF702FB33
:1036B00039A26E212320FEF764FC4FF4FA7000F06B
:1036C00047FB4FF6FF70FDF7F5FA11B000BD00BFE4
:1036D00000BFFFF7ABBB1FB50121112001F0B1F80E
:1036E00042F20900ADF8080010208DF80B0003200D
:1036F0008DF80A0002A92E4800F064FD0620ADF8FE
:10370000080048208DF80B0002A9294800F05AFD56
:103710001D49891D881EFFF77BF907208DF80C00D5
:1037200002208DF80D0000208DF80E0001208DF88C
:103730000F0003A800F0D1FB0121084601F081F839
:103740000121022000F052FE0220009000208DF89E
:1037500004000C208DF8050001208DF80600684655
:1037600000F041FCFEF7F8FDFFF7D6FA00B11FBDEF
:103770004FF6FF70FDF79EFAFFF739FBFFF77BFA74
:10378000FFF7CAFA00BFF2E7A813002022000020CA
:10379000230000201C000020546F756368205363D1
:1037A0007265656E2041646A757374204F4B210009
:1037B0000010014010B504462046FEF78BFE10BDF8
:1037C00010B53820FEF7E3FE10BD10B50020FEF75F
:1037D000DEFE10BD08B50121042001F032F81C20E6
:1037E000ADF8000010208DF8030003208DF80200D2
:1037F0006946FF4800F0E6FC1C21FD4800F08DFD05
:10380000FEF78FFE0120FB49086008BD10B50120BE
:10381000F84908604FF0FF00FFF7CCFF10BD10B56E
:10382000002400BFFF20FFF7C5FFFF2801D10020C3
:1038300010BD641C6FF07F408442F3D30120F7E792
:1038400010B50020EB490860FFF7E9FF08B9002038
:1038500010BDFFF7DBFF0120FAE770B5054640F623
:10386000FF7401E0601E84B2FF20FFF7A3FFA842AF
:1038700001D0002CF6D10CB9FF2070BD0020FCE770
:1038800070B504460D46FE20FFF7E7FF08B10120A2
:1038900070BD04E0FF20FEF71DFE2070641C2800B0
:1038A000A5F101018DB2F5D1FF20FFF783FFFF20C5
:1038B000FFF780FF0020EBE770B506460D46FFF7E7
:1038C000AEFF08B1012070BD2846FFF773FFFD2D44
:1038D00019D0002404E0305DFEF7FCFD601C84B2CA
:1038E000B4F5007FF7DBFF20FFF764FFFF20FFF751
:1038F00061FFFF20FFF75EFF044604F01F0005286C
:1039000001D00220DFE70020DDE72DE9F041054688
:103910000C4617464FF00008FFF778FFFFF790FFBF
:1039200010B1FF20BDE8F08145F04000FFF742FFF5
:10393000200EFFF73FFFC4F30740FFF73BFFC4F340
:103940000720FFF737FFE0B2FFF734FF3846FFF7F5
:1039500031FF0C2D02D1FF20FFF72CFF4FF01F0885
:1039600000BFFF20FFF726FF064616F0800F06D0A7
:103970005FEA0800A8F1010101F0FF08F1D130462B
:10398000D0E770B50546012200210A20FFF7BDFFF0
:10399000044624B910212846FFF772FF0446FFF7BA
:1039A00035FF0CB1012070BD0020FCE770B5054665
:1039B000012200210920FFF7A8FF044624B91021A5
:1039C0002846FFF75DFF0446FFF720FF0CB10120FA
:1039D00070BD0020FCE77FB56846FFF7E7FF10B138
:1039E000002004B070BD9DF8000000F0C000402829
:1039F00009D19DF809009DF8081000EB0120401C3A
:103A000084B2A50220E09DF8050000F00F009DF8AB
:103A10000A1000EBD1109DF8091001F0030100EB32
:103A20004100861C9DF8080080119DF8071000EBEE
:103A300081019DF8060000F0030001EB8020441C8A
:103A4000A6F1090004FA00F52846CAE770B500247B
:103A500001E0601C84B2B4F5706FFADB002404E06E
:103A6000FF20FEF737FD601C84B20A2CF8DB00252E
:103A700000BF952200210846FFF747FF0446681C57
:103A8000C5B2012C01D0C82DF3DBC82D01D1012016
:103A900070BD0020FCE7F8B5FFF79CFEFFF790FE35
:103AA000002504E0FF20FFF785FE681C85B20A2D83
:103AB000F8DB142600BF952200210846FFF725FFFA
:103AC0000446012C04D03000A6F101018EB2F2D1DF
:103AD000002049490870012C6ED187224FF4D5711E
:103AE0000820FFF712FF012845D1002506E0FF203E
:103AF000FFF760FE0DF80500681C85B2042DF6DBAB
:103B00009DF80200012857D19DF80300AA287CD116
:103B10004FF6FE7600BF012200213720FFF7F5FEA9
:103B2000012291072920FFF7F0FE044624B130005E
:103B3000A6F101018EB2EED1F6B3012200213A20A6
:103B4000FFF7E3FEC0BB002506E0FF20FFF732FED3
:103B50000DF80500681C85B2042DF6DB9DF8000009
:103B600010F0400F03D00620234908704DE00420D8
:103B70002149087049E0012200213720FFF7C5FEE6
:103B8000012200212920FFF7C0FE0446012C19DC88
:103B90000220194908704FF6FE7600BF012200216D
:103BA0003720FFF7B2FE012200212920FFF7ADFEEA
:103BB0000446CCB1300000E027E0A6F101018EB24E
:103BC000ECD111E001200C4908704FF6FE7600BFE1
:103BD000012200211046FFF798FE044624B1300070
:103BE000A6F101018EB2F3D166B10122510205E0C6
:103BF000000801408C012142240000201020FFF722
:103C000084FE10B1002047490870FFF7FFFDFFF761
:103C1000DCFD4448007808B10020F8BD0CB1204616
:103C2000FBE7AA20F9E72DE9F04106460F461546C5
:103C30003C480078062800D07F02012D0CD10122DB
:103C400039461120FFF761FE0446FCB9690230468F
:103C5000FFF716FE044619E0012239461220FFF74D
:103C600054FE044600BF4FF400713046FFF708FED3
:103C7000044606F50076681EC0B2050001D0002C8F
:103C8000F1D0012200210C20FFF73FFEFFF7BEFD1F
:103C90002046BDE8F0812DE9F04106460F46154665
:103CA00020480078062800D07F02012D0CD1012287
:103CB00039461820FFF729FE04466CBBFE2130462A
:103CC000FFF7FAFD044627E016480078012809D0DE
:103CD000012200213720FFF718FE01222946172074
:103CE000FFF713FE012239461920FFF70EFE0446A6
:103CF00094B900BFFC213046FFF7DEFD044606F50F
:103D00000076681EC0B2050001D0002CF2D0FD2163
:103D10000020FFF7D1FD0446FFF778FD2046BDE8FF
:103D2000F08100002400002010B504466FF004006C
:103D300000F027F9E11704EB5171C9101F4A117007
:103D4000104600784FF47A7148431D49088010BD31
:103D500001461B4A12884A434FF0E0235A61002271
:103D60009A6101221A6100BF4FF0E022106910F041
:103D7000010F02D010F4803FF6D000224FF0E02374
:103D80001A619A61704701460C4A12784A434FF013
:103D9000E0235A6100229A6101221A6100BF4FF0AC
:103DA000E022106910F0010F02D010F4803FF6D02D
:103DB00000224FF0E0231A619A617047260000202C
:103DC0002800002010B54FF4A06000F081F810BD6D
:103DD000014600BF704700BF2A4A128812F0400F08
:103DE000FAD0C2B2284B1A80704710B586B004468C
:103DF000012144F2050000F024FD4FF40070ADF8FD
:103E0000140003208DF8160018208DF8170005A95E
:103E10001E4800F0D7F94FF48060ADF8140004207C
:103E20008DF8170005A9194800F0CCF925208DF868
:103E3000000003208DF801008DF8020001208DF8AC
:103E40000300684600F049F801940020ADF808002E
:103E5000ADF80A00ADF80C00ADF810000C20ADF87C
:103E60000E0001A9074801F0FAFD012240F2255198
:103E7000044801F08CFE0121024801F07CFE06B0EE
:103E800010BD000000380140043801400008014026
:103E90000948804709480047FEE7FEE7FEE7FEE7DE
:103EA000FEE7FEE7FEE7FEE7FEE7FEE7044805491A
:103EB000054A064B70470000F9050008ED000008B0
:103EC000C0400020C0460020C0420020C042002068
:103ED00036490143364A1160704770B5002100230E
:103EE0000F22C4784CB3324C246804F4E064C4F567
:103EF000E0644FEA1421C1F1040322FA01F244788C
:103F000004FA03F1847804EA020444EA01014FEA66
:103F10000111284C0678A155047804F01F054FF0D4
:103F2000010404FA05F405784FEA65154FF0E02620
:103F300006EB8505C5F8004109E0047804F01F058B
:103F40000124AC401C4D0678761145F8264070BD22
:103F50001A4A0A4002431A4B1A60704741B1194A83
:103F6000126842EA00024FF0E023C3F8102D07E088
:103F7000144A126822EA00024FF0E023C3F8102D21
:103F80007047042808D14FF0E021096941F004018D
:103F90004FF0E022116107E04FF0E021096921F0C4
:103FA00004014FF0E0221161704700000000FA05A3
:103FB0000CED00E000E400E080E100E080FFFF1F86
:103FC00008ED00E010ED00E0002047490860474997
:103FD000C1F804044649086001F10401086045483D
:103FE00045490860704700213F498279DAB33F4A6A
:103FF000D2F8002403689A433C4BC3F800241A46C5
:10400000D2F8042403689A4301F104031A60027988
:1040100011440A68036842EA03020A60334AD2F88C
:104020000824036822EA0302304BC3F808241A4626
:10403000D2F80C24036822EA0302304B1A6042795A
:10404000102A11D1294AD2F8082403681A43274BB1
:10405000C3F808241A46D2F80C2403681A43234BE9
:10406000C3F80C240EE007E01F49427911440A68A6
:1040700003681A430A6005E0027911440A6803687C
:104080009A430A6070470021016001710C2141715F
:104090000021817170471A49096841EA0001134AF9
:1040A000C2F81014704701460020134A12680A42F1
:1040B00001D0012000E0002070470F4908607047E0
:1040C000014600200022084B1B6803EA0102074B4F
:1040D000D3F814340B4202D00AB1012000E00020D2
:1040E0007047054908607047000401400000014026
:1040F00008040140FFFF0F00140401400C040140BC
:104100001004014010B50446CA48844208D1012178
:10411000042000F0B0FB0021042000F0ACFB46E0DE
:10412000C548844208D10121082000F0A4FB0021E9
:10413000082000F0A0FB3AE0C048844208D10121E9
:10414000102000F098FB0021102000F094FB2EE0DE
:10415000BB48844208D10121202000F08CFB0021C3
:10416000202000F088FB22E0B648844208D10121DB
:10417000402000F080FB0021402000F07CFB16E096
:10418000B148844208D10121802000F074FB002155
:10419000802000F070FB0AE0AC48844207D1012186
:1041A000801500F068FB0021A01500F064FB10BD35
:1041B00010B50121084600F05EFB0021012000F04F
:1041C0005AFB10BD2DE9F0410246002500260020D3
:1041D00000230024002791F803C00CF00F0591F88C
:1041E00003C01CF0100F03D091F802C04CEA050583
:1041F000B1F800C01CF0FF0F31D0146800202BE094
:104200004FF0010C0CFA00F3B1F800C00CEA030601
:104210009E4220D183004FF00F0C0CFA03F7BC43F1
:1042200005FA03FC4CEA040491F803C0BCF1280F22
:1042300006D14FF0010C0CFA00FCC2F814C00AE0E1
:1042400091F803C0BCF1480F05D14FF0010C0CFAF6
:1042500000FCC2F810C0401C0828D1D31460B1F88B
:1042600000C0BCF1FF0F34DD546800202EE000F1E7
:10427000080C4FF0010808FA0CF3B1F800C00CEA82
:1042800003069E4221D183004FF00F0C0CFA03F776
:10429000BC4305FA03FC4CEA040491F803C0BCF1EA
:1042A000280F05D100F1080C08FA0CF8C2F81480A8
:1042B00091F803C0BCF1480F07D100F1080C4FF092
:1042C000010808FA0CF8C2F81080401C0828CED368
:1042D0005460BDE8F0814FF6FF71018002218170CA
:1042E0000421C17070470246002093680B4201D040
:1042F000012000E0002070470146886880B27047C6
:1043000002460020D3680B4201D0012000E00020CB
:1043100070470146C86880B27047016170474161CB
:1043200070470AB1016100E041617047C1607047A8
:104330004FF480320A4382618161826182698269BD
:10434000704702460020424B18684FF680731840B1
:1043500040EA021008433E4B186070473D49C8616F
:104360007047F0B50A46002300240021002500F024
:104370000046B6F1004F02D1354EF16901E0344EEE
:104380007168C0F3034583B200F44016B6F5401FD0
:1043900008D121F070612E4E766826F070662C4FA1
:1043A0007E6012E000F48016B6F5801F06D1032669
:1043B00006FA05F4A14341F0706106E0460D3601AE
:1043C00003FA06F6B14341F0706122B1460D3601A1
:1043D00003FA06F6314300F00046B6F1004F02D171
:1043E0001B4EF16101E01A4E7160F0BD30B5002244
:1043F0008B071C0F0F2303FA04F2154B08338C10A4
:1044000053F824309343124C08348D1044F825306F
:1044100023468C1053F824308C07240F00FA04F440
:1044200023430B4C08348D1044F8253030BD0A4925
:104430000860704700080140000C01400010014076
:104440000014014000180140001C01400020014000
:104450000000014000002042DC0020420E490860BC
:1044600070470D49486070470B49886070474AF6AD
:10447000AA200949086070474CF6CC4006490860FC
:10448000704701460020044AD2680A4201D0012048
:1044900000E00020704700000030004010B501210E
:1044A000080700F0F5F900214FF0805000F0F0F916
:1044B00010BD2C49086270472A49086170470146BF
:1044C0000020294A106820F0E0000843106070477F
:1044D00026490860704710B502460020224B186834
:1044E00020F0030010431860214B1B6843F00403C5
:1044F0004FF0E024C4F8103D012901D130BF00E0A5
:1045000020BF1B4B1B6823F004034FF0E024C4F8CA
:10451000103D10BD1448006840F0040012490860C6
:104520000846006840F0020008601148006840F04A
:1045300004004FF0E021C1F8100D00BF00BF30BFF4
:10454000704701460020084A52680A4201D0012003
:1045500000E0002070470449096841EA8001024AEE
:104560001160704700000E4200700040A0000E4233
:1045700010ED00E0DB48006840F00100D949086018
:1045800008464068D8490840D6494860084600684F
:10459000D6490840D34908600846006820F48020C6
:1045A00008600846406820F4FE0048604FF41F0091
:1045B00088607047CB49096821F48031C94A11608D
:1045C0001146096821F480211160B0F5803F03D0C5
:1045D000B0F5802F0ED106E0C249096841F4803160
:1045E000C04A116007E0BF49096841F4A021BD4AF3
:1045F000116000E000BF00BF704710B50146002207
:10460000002300204A11012A02D1B64C236806E09B
:10461000022A02D1B34C236A01E0B24C636A01F072
:104620001F02012494401C4201D0012000E0002020
:1046300010BD70B500240025002600BF3120FFF713
:10464000DCFF0646641CB4F5A06F01D0002EF5D047
:104650003120FFF7D2FF08B1012500E000252846F0
:1046600070BD014600209F4A106820F0F80040EA23
:10467000C100106070479E490860704702460020E4
:10468000984B586820F47C1042EA01031843954B7C
:104690005860704796490866704701460020914A65
:1046A000506820F003000843506070478D48406810
:1046B00000F00C007047014600208A4A506820F044
:1046C000F00008435060704701460020854A50685A
:1046D00020F4E06008435060704701460020814AA2
:1046E000506820F4605040EAC1005060704729B122
:1046F0007C4A527A02437B4B5A7206E0794A527ADC
:10470000C343DBB21A40774B5A727047794908604D
:10471000704701460020734A506820F44040084327
:10472000506070470021744A11706E4A82F8201060
:10473000012802D0042808D103E001216E4A11703B
:1047400004E005216C4A117000E000BF00BF704713
:104750006A49086070476349096A0143614A116206
:10476000704767490860704730B500210022002477
:1047700000235C4D6D6805F00C0121B1042905D0C2
:10478000082923D105E05F4D056022E05D4D0560FD
:104790001FE0544D6D6805F47012524D6D6805F4BC
:1047A0008034022505EB92421CB9574D55430560F4
:1047B0000BE04C4D6D6815F4003F03D0524D55434E
:1047C000056002E04F4D5543056002E04D4D056028
:1047D00000BF00BF434D6D6805F0F00109094B4D66
:1047E0006B5C0568DD4045603E4D6D6805F4E06139
:1047F000090A464D6B5C4568DD408560394D6D6842
:1048000005F46051C90A414D6B5C4568DD40C560E7
:10481000344D6D6805F44041890B3D4D6B5CC568B6
:10482000B5FBF3F5056130BD29B12E4A526902434B
:104830002C4B5A6104E02B4A52698243294B5A613E
:10484000704729B1274A92690243264B9A6104E0D6
:10485000244A92698243234B9A61704729B1214AC5
:10486000D26902431F4BDA6104E01E4AD2698243D7
:104870001C4BDA61704729B11A4AD2680243194BBE
:10488000DA6004E0174AD2688243164BDA60704758
:1048900029B1144A12690243124B1A6104E0114A09
:1048A000126982430F4B1A6170471A4908607047BA
:1048B0000F49C86470470B49C87170470948406A7E
:1048C00040F0807007494862704701460020054A61
:1048D00092680A4201D0012000E00020704701499F
:1048E00088727047001002400000FFF8FFFFF6FEDC
:1048F00000004242D800424220100240800442425E
:104900003C04424200127A0000093D0034000020BD
:10491000440000204004424210B50446BF4884428F
:1049200008D101218014FFF7A6FF0021A014FFF792
:10493000A2FF16E0BA48844208D101210014FFF713
:10494000A7FF00212014FFF7A3FF0AE0B548844227
:1049500007D10121C013FFF79BFF0021E013FFF7F0
:1049600097FF10BD10B50022028802F441520B8857
:104970004C8823438C882343CC8823430C892343CE
:104980004C8923438C892343CC8923431A430280D7
:10499000838B4FF2FF74234083830B8A038210BD05
:1049A0002DE9F04F85B005460C464FF0000902276F
:1049B0004FF000084FF0010B0026B246A88B4FF2D3
:1049C00040010840A88302202884B5F81C90A06804
:1049D000022801D100BF36E0A08810B94FF0010BCA
:1049E00001E04FF0020B8E48854200D100E000BF8D
:1049F0006846FFF7B9FEDDF800A0E088B0F5007F5B
:104A00000AD14FEA1A2000EB80004000A168B0FBF9
:104A1000F1F0401D86B20BE04FEA4B10BAFBF0F00C
:104A200000EB80004000A168B0FBF1F0401D86B2B1
:104A30000A20B6FBF0F606F00108A6EB0800C0F36A
:104A40004F074FEA0828022F01DBFF2F02DD022764
:104A50004FF00008E08840EA080038432884A08826
:104A6000A1890843618808432188084340F4006015
:104A700040EA0909A5F81C9005B0BDE8F08F0021B7
:104A8000018041808180C180018141818181C1811A
:104A90000721018270470021018041808180C1800F
:104AA0000221816000218181704721B1028842F09A
:104AB0004002028004E002884FF6BF731A40028071
:104AC000704721B1828B42F48062828304E0828B42
:104AD0004FF6FF331A408283704770B500240023DD
:104AE0000C110125A540ABB21AB185881D43858004
:104AF00004E08588DE43B6B23540858070BD10B5D0
:104B00001AB183880B43838004E08388CC43A4B22A
:104B10002340838010BD818170470146888970479A
:104B2000A1F57E42FF3A04D0028842F480720280EE
:104B300004E002884FF6FF631A400280704721B1FB
:104B4000828842F00402828004E082884FF6FB7380
:104B50001A408280704702884FF2FF731A40028029
:104B600002880A4302807047018841F48051018025
:104B7000704721B1028842F40052028004E00288AA
:104B80004DF6FF731A40028070470246002001294B
:104B900001D0108B00E0908A70470146088A704768
:104BA000B1F5804F04D1028842F48042028004E0D3
:104BB00002884BF6FF731A400280704702460020BD
:104BC00013890B4201D0012000E000207047CA4346
:104BD00002817047F0B50246002000240023002522
:104BE00001F00F070126BE40B4B20B1101269E4012
:104BF000B3B2968806EA03051689264202D00DB1A3
:104C0000012000E00020F0BD10B5002201F00F04EB
:104C10000123A3409AB2D343038110BD0030014069
:104C200000380040003C004010B50446FF48844274
:104C300008D10121C014FFF71EFE0021E014FFF788
:104C40001AFEC4E0B4F1804F08D101210846FFF7F5
:104C50001FFE00210120FFF71BFEB8E0F44884424C
:104C600008D101210220FFF713FE00210220FFF7E7
:104C70000FFEACE0EF48844208D101210420FFF789
:104C800007FE00210420FFF703FEA0E0EA4884426B
:104C900008D101210820FFF7FBFD00210820FFF7C4
:104CA000F7FD94E0E548844208D101211020FFF788
:104CB000EFFD00211020FFF7EBFD88E0E048844283
:104CC00008D101212020FFF7E3FD00212020FFF77C
:104CD000DFFD7CE0DB48844208D101214014FFF76E
:104CE000CAFD00216014FFF7C6FD70E0D64884427B
:104CF00009D10121C804FFF7BEFD00214FF40020B7
:104D0000FFF7B9FD63E0D148844209D101210805CC
:104D1000FFF7B1FD00214FF48010FFF7ACFD56E026
:104D2000CB48844209D101214805FFF7A4FD0021A9
:104D30004FF40010FFF79FFD49E0C648844208D1B8
:104D400001214020FFF7A4FD00214020FFF7A0FD36
:104D50003DE0C148844208D101218020FFF798FD41
:104D600000218020FFF794FD31E0BC48844208D147
:104D700001218015FFF78CFD0021A015FFF788FDAC
:104D800025E0B748844209D101210804FFF773FDEB
:104D900000214FF48030FFF76EFD18E0B1488442E7
:104DA00009D101214804FFF766FD00214FF40030CE
:104DB000FFF761FD0BE0AC48844208D10121880473
:104DC000FFF759FD00214FF48020FFF754FD10BD7F
:104DD00000220288954B98420ED09A4B98420BD0F5
:104DE000B0F1804F08D0924B984205D0914B984239
:104DF00002D0914B984204D14FF68F731A404B88E2
:104E00001A438E4B984207D08D4B984204D04FF6F0
:104E1000FF431A40CB881A4302808B8883850B8816
:104E20000385824B98420BD0864B984208D08C4B1E
:104E3000984205D08B4B984202D08B4B984201D1BF
:104E40000B7A038601238382704770B50024002209
:104E50000023058C4FF6FE7635400584028C83884E
:104E6000048B4FF68F752C40B51E2C400D882C43BB
:104E7000751E2A400D892A434D882A436B4DA8424E
:104E80000BD0704DA84208D0754DA84205D0754D85
:104E9000A84202D0744DA84213D14FF6F7752A40AC
:104EA0004D892A434FF6FB752A408D882A434FF6D9
:104EB000FF652B404FF6FF552B408D892B43CD8945
:104EC0002B4383800483CD888586028470BD70B5B2
:104ED000002400220023058C4FF6EF763540058430
:104EE000028C8388048B48F6FF752C404FF6FF45F3
:104EF0002C400D882D0644EA15444FF6DF752A40F4
:104F00000D892D0542EA15424D882D0542EA1542CC
:104F1000464DA84202D04B4DA8421BD14FF67F759B
:104F20002A404D892D0542EA15424FF6BF752A40A9
:104F30008D882D0542EA15424FF6FF352B404FF282
:104F4000FF752B408D89AD0443EA1543CD89AD042F
:104F500043EA154383800483CD880587028470BDAE
:104F600070B5002400220023058C4FF6FF66354003
:104F70000584028C8388848B4FF68F752C404FF606
:104F8000FC752C400D882C434FF6FF552A400D89A7
:104F90002D0642EA15424D882D0642EA1542234D60
:104FA000A84202D0274DA8421BD14FF2FF752A40DC
:104FB0004D892D0642EA15424FF6FF352A408D886D
:104FC0002D0642EA15424EF6FF752B404DF6FF7551
:104FD0002B408D892D0543EA1543CD892D0543EAE4
:104FE000154383808483CD888587028470BD70B526
:104FF000002200230024058C4EF6FF763540058400
:10500000038C8488828B48F6FF752A404FF6FF4553
:105010002A400D882D0642EA15424DF6FF752B40B9
:105020000D892D0743EA15434D881FE0002C0140F0
:105030000004004000080040000C00400010004048
:105040000014004000340140004C01400050014079
:105050000054014000180040001C004000200040A7
:105060000040014000440140004801402D0743EA50
:105070001543F94DA84202D0F84DA84206D14BF68F
:10508000FF752C408D89AD0544EA154484808283E8
:10509000CD88A0F84050038470BD828B4FF2FF335F
:1050A0001A408283828B0B0642EA13428283704746
:1050B000F0B50C461546002200210026078C4EF65E
:1050C000FF7C07EA0C070784828B018C27073E0CC4
:1050D00040F6FF473A402F0642EA17421F0742EACE
:1050E0001742DD4FB8420ED0DC4FB8420BD0B0F1C2
:1050F000804F08D0DA4FB84205D0DA4FB84202D01C
:10510000D94FB84206D14DF6FF77394046F4805763
:10511000394305E047F6FF57394044F48057394397
:1051200082830184F0BD828B4FF6F3731A40828331
:10513000828B0A4382837047F0B50C4615460022E5
:1051400000210026078C4FF6FF6C07EA0C07078446
:10515000828B018C27063E0C4FF60C773A401F05D8
:1051600045EA17473A43BC4FB8420ED0BB4FB8424E
:105170000BD0B0F1804F08D0B94FB84205D0B94F2D
:10518000B84202D0B84FB84206D14FF6FF57394067
:1051900046F48077394305E04FF2FF57394044F435
:1051A0008077394382830184F0BD028B4FF2FF3355
:1051B0001A400283028B0B0642EA134202837047B5
:1051C000F0B50C461546002200210026078C4FF64C
:1051D000EF7C07EA0C070784028B018C27053E0C45
:1051E00040F6FF473A401F0742EA17422F0642EABD
:1051F0001742994FB8420ED0984FB8420BD0B0F139
:10520000804F08D0964FB84205D0964FB84202D092
:10521000954FB84206D14FF6DF77394046F0100778
:10522000394305E04FF65F77394044F010073943C2
:1052300002830184F0BD028B4FF6F3731A400283A0
:10524000028B0A4302837047F0B50C4615460022D4
:105250000021068C4FF6FE773E400684028B018CBF
:105260004FF60C7632401E0545EA164632437A4E1A
:10527000B0420ED0794EB0420BD0B0F1804F08D082
:10528000774EB04205D0774EB04202D0764EB04253
:1052900006D14FF6FD76314044F00106314305E07A
:1052A0004FF6F576314044F0010631430283018424
:1052B000F0BD70B505460C46674885420ED067487C
:1052C00085420BD0B5F1804F08D06548854205D0A6
:1052D0006448854202D06448854200D100E000BFA6
:1052E000208850B92389A28861882846FFF7ACFF3F
:1052F000E1882846FFF79FFF25E0208804280AD18F
:105300002389A28861882846FFF75AFFE18828464A
:10531000FFF74BFF17E0208808280AD12389A288CD
:1053200061882846FFF708FFE1882846FFF7FBFE63
:1053300009E02389A28861882846FFF7B9FEE18841
:105340002846FFF7AAFE70BD2DE9F04105460C4640
:1053500000260127608808B9022600E00026A08800
:10536000012801D1022700E001272088A0B9238964
:10537000A28861882846FFF767FFE1882846FFF783
:105380005AFF23893A4631462846FFF719FFE1883C
:105390002846FFF70AFF13E02389A2886188284680
:1053A000FFF70EFFE1882846FFF7FFFE23893A4604
:1053B00031462846FFF748FFE1882846FFF73BFFC4
:1053C000BDE8F0810A884B881A438B881A43CB8842
:1053D0001A430B891A434B891A438B891A43A0F845
:1053E000442070474FF6FF71818000210180C18009
:1053F0004180017270470021018041808180C1801D
:10540000018141818181C1817047002101804180FA
:10541000012181800021C18001817047002101802C
:1054200041808180C180018141818181704721B1AA
:10543000028842F00102028004E002884FF6FE7307
:105440001A400280704789B1B0F8442042F400420B
:10545000A0F8442010E00000002C0140003401407E
:105460000004004000080040000C0040B0F8442058
:10547000C2F30E02A0F84420704710B51AB1838918
:105480000B43838104E08389CC43A4B2234083810E
:1054900010BD8182704741EA0203A0F8483070478E
:1054A00010B51AB183890B43838104E08389CC430F
:1054B000A4B22340838110BD01894FF6F8721140D8
:1054C000018170470A46002101894FF68F73194008
:1054D00011430181704730B504460D4629462046E8
:1054E000FFF7F0FF208940F00700208130BD2DE953
:1054F000F04104460D4616461F46602D06D13B4638
:10550000012231462046FFF75BFE05E03B460122C3
:1055100031462046FFF798FE29462046FFF7D2FF86
:10552000208940F007002081BDE8F08130B50C46AD
:1055300000210189C9B21D0642EA154525432943C8
:10554000018130BD2DE9F04105460E4617469846CB
:10555000002443463A4631462846FFF7E7FF2C89A8
:105560004FF6F8710C4044F007044FF68F710C4071
:1055700044F070042C81BDE8F081F0B504460D467E
:1055800016461F463B46324629462046FFF7CEFFC9
:10559000208940F480402081F0BD018582827047DF
:1055A0000A46002101884FF68F731940114301808C
:1055B0007047F0B50C4615461E4600210022002318
:1055C0000189028B038C4FF6F877394021434FF65F
:1055D000FC473A4040F201173A434FF6DD773B4033
:1055E000370545EA17473B43018102830384F0BD39
:1055F0000A460021018B4FF68F7319401143018336
:1056000070470A460021018B48F6FF7319401306C4
:1056100041EA1341018370470A460021818B4FF60E
:105620008F7319401143818370470A460021818B93
:1056300048F6FF731940130641EA1341818370470E
:1056400021B1028842F08002028004E002884FF615
:105650007F731A400280704721B1828842F00402B1
:10566000828004E082884FF6FB731A408280704784
:1056700021B1828842F00802828004E082884FF6DD
:10568000F7731A408280704721B1828842F001028C
:10569000828004E082884FF6FE731A408280704751
:1056A0000A460021018B4FF6F7731940114301831D
:1056B00070470A460021018B4FF2FF731940130611
:1056C00041EA1341018370470A460021818B4FF65E
:1056D000F77319401143818370470A460021818B7B
:1056E0004FF2FF731940130641EA1341818370475B
:1056F0000A460021018B4FF6FB73194011430183C9
:1057000070470A460021018B4FF6FF3319401306FC
:1057100041EA1341018370470A460021818B4FF60D
:10572000FB7319401143818370470A460021818B26
:105730004FF6FF331940130641EA13418183704746
:105740000A460021018B4FF67F73194011430183F4
:1057500070470A460021018BC1F30E01130641EA8E
:105760001341018370470A460021818B4FF67F73F6
:1057700019401143818370470A460021818BC1F390
:105780000E01130641EA1341818370470A46002146
:10579000018C4FF6FD7319401143018470470A468E
:1057A0000021018C4FF6F7731940114301847047B3
:1057B0000A460021018C4FF6DF731940130541EAB8
:1057C0001341018470470A460021018C4FF67F7314
:1057D0001940130541EA1341018470470A4600212C
:1057E000018C4FF6FF531940130641EA134101841F
:1057F00070470A460021018C4FF2FF7319401306CF
:1058000041EA1341018470470A460021018C4DF69C
:10581000FF731940130741EA13410184704730B503
:10582000002301248C40A3B2048CDD43ADB22C4094
:105830000484048C02FA01F5ADB22C43048430BD1B
:1058400030B5002304248C40A3B2048CDD43ADB2F8
:105850002C400484048C02FA01F5ADB22C4304847C
:1058600030BD70B5034600200024184618300125CD
:105870008D40ACB21D8CE643B6B235401D8409B1F3
:10588000082909D100EB6100056825F07005056065
:105890000568154305600CE00D1FADB200EB650017
:1058A000056825F4E04505600568160645EA1645D5
:1058B000056070BD21B1028842F00202028004E05E
:1058C00002884FF6FD731A400280704721B10288AA
:1058D00042F00402028004E002884FF6FB731A4093
:1058E0000280704721B1828842F08002828004E009
:1058F00082884FF67F731A408280704702884FF685
:10590000F7731A40028002880A4302807047828837
:105910004FF68F731A40828082880A4382807047D4
:1059200002894FF6F8731A40028102890A43028104
:10593000704702894FF67F731A40028102890A4339
:1059400002817047818470478185704781867047E6
:105950000187704781877047A0F840107047028820
:105960004FF6FF431A40028002880A4302807047C4
:105970000146888E70470146088F70470146888F20
:1059800070470146B1F8400070470146888C704767
:105990000146088D704702460020138A0B4201D051
:1059A000012000E000207047CA430282704730B5F2
:1059B0000246002000230024158A05EA0103958988
:1059C00005EA010413B10CB1012000E0002030BD54
:1059D000CA4302827047000010B50446FC48844266
:1059E00009D101218803FEF746FF00214FF48040D2
:1059F000FEF741FF32E0F748844209D10121480413
:105A0000FEF746FF00214FF40030FEF741FF25E08E
:105A1000F148844209D101218804FEF739FF0021B1
:105A20004FF48020FEF734FF18E0EC48844209D19F
:105A30000121C804FEF72CFF00214FF40020FEF7DF
:105A400027FF0BE0E648844208D101210805FEF754
:105A50001FFF00214FF48010FEF71AFF10BD2DE943
:105A6000F04786B005460E460024A24600BFA14678
:105A70000027B08900B100BF2F462C8A4CF6FF707A
:105A80000440F08804432C82AC894EF6F3100440A5
:105A9000B08831890843718908430443AC81AC8ADA
:105AA0004FF6FF400440B0890443AC8201A8FEF7E2
:105AB0005BFEC748874202D1DDF810A001E0DDF8A7
:105AC0000CA0A88910F4004F08D00AEBCA0000EB24
:105AD0000A1031684900B0FBF1F807E00AEBCA0090
